:020000040000FA
:100000000C9404010C941A0B0C94F30A0C942C011C
:100010000C942C010C942C010C942C010C94410B8D
:100020000C942C010C942C010C942C010C942C019C
:100030000C942C010C942C010C942C010C942C018C
:100040000C94A90A0C942C010C94C30B0C949D0BDA
:100050000C942C010C942C010C942C010C942C016C
:100060000C94F50B0C942C010000000023002600DA
:10007000290000000000240027002A0000000008DA
:10008000000201000003040700000000000000005F
:100090001912181415BB161117131A404020200806
:1000A00004020277017E0258031206590714081150
:1000B0000A8410761B661C0D1D5A1E291F702069AC
:1000C0002172227A236B24732574266C2775287D70
:1000D00029712A792C7B2D7C2E0F3F453016311E3D
:1000E00032263325342E3536363D373E38463952A2
:1000F0003A413B4E3C493D4A3E0E401C4132422172
:1001000043234424452B463447334843493B4A4222
:100110004B4B4C3A4D314E444F4D5015512D521BC7
:10012000532C543C552A561D57225835591A5A4CAF
:100130005B5D5C545D5B5E555F618B0561066204CF
:10014000630C6403650B6683670A680169096A7852
:100150006B076C086D106E186F2070287130723844
:100160007340744875507657775F786D605191137E
:10017000926A9364946795F296F197639862995F97
:10018000A012BB7C041409110B1F0C270D2F0E7E2F
:100190000F6C1169127D137A146B15741675177232
:1001A000187019711A5A2B4A2F4D79157A3B7B34E6
:1001B0007C237D327E217F508048812B82408310BA
:1001C000843A853886308728882089188A378C3F7A
:1001D0008D5E900102040810204080010204081086
:1001E0002001020408102000000000250028002B38
:1001F00000040404040404040402020202020203D0
:10020000030303030302140D11241FBECFEFD8E034
:10021000DEBFCDBF15E0A0E0B1E0E2EDF0E202C04C
:1002200005900D92AC32B107D9F726E0ACE2B5E00B
:1002300001C01D92AD3EB207E1F711E0C4E0D1E08C
:1002400004C02197FE010E943F10C330D107C9F7B7
:100250000E944D0D0C9467100C9400008230D8F46D
:10026000E82FF0E0EE0FFF1FEC5FFE4F23EB36E0D0
:1002700031832083813041F0809169008C7F8260DE
:1002800080936900E89A089580916900837F88606F
:1002900080936900E99A0895833081F028F48130D1
:1002A00099F08230A9F008958730A9F08830C9F01C
:1002B0008430B1F4809180008F7D03C080918000F4
:1002C0008F7780938000089584B58F7784BD0895DB
:1002D00084B58F7DFBCF8091B0008F778093B00085
:1002E00008958091B0008F7DF9CF1F93CF93DF9356
:1002F000282F30E0F901E458FF4F8491F901ED52C5
:10030000FE4FD491F901EF50FE4FC491CC23A9F0D8
:10031000162F81110E944C01EC2FF0E0EE0FFF1F11
:10032000E951FE4FA591B4918FB7F894EC9111115A
:1003300008C0D095DE23DC938FBFDF91CF911F9152
:100340000895DE2BF8CFCF93DF9390E0FC01ED52C0
:10035000FE4F24918F509E4FFC0184918823D1F051
:1003600090E0880F991FFC01EE58FF4FA591B491C2
:10037000FC01E951FE4FC591D491623071F49FB7F1
:10038000F8943C91822F809583238C93E8812E2BC7
:1003900028839FBFDF91CF9108958FB7F894EC9198
:1003A0002E2B2C938FBFF6CFCF92DF92EF92FF923E
:1003B000CF936C01809103018E3049F08F3F09F497
:1003C00086C0CF91FF90EF90DF90CF900895E5E049
:1003D000F2E0C491C7FDF5CF61E08EE00E94A30179
:1003E000F12CE12CCC23D9F0960150E040E0C23052
:1003F00009F0DEC07A0160E970ED83E090E00E94D0
:100400002010BA01A901415051096109710983E025
:100410004F3F51056105710509F00CF40FC168E407
:1004200078EE81E090E0A70196010E942010BA01C9
:10043000A9014150510961097109CC2309F4F4C0A3
:10044000C23009F0B3C04F3F51056105710509F095
:100450000CF4F3C064E274EF80E090E0A701960131
:100460000E942010BA01A901415051096109710986
:1004700085E04F3F51056105710509F008F4DEC0C4
:1004800062E17AE780E090E0A70196010E942010E7
:10049000BA01A9014150510961097109C111DBC0BB
:1004A00094E085B5887F892B85BD47BD8FEF9FEF91
:1004B000DC018093400690934106A0934206B093DE
:1004C000430680916E00826080936E007ACF8EE04A
:1004D00080930301E5E0F2E0C491CF3F09F471CFCE
:1004E000C13021F150F0C23009F43EC0C7FD69CFE0
:1004F00061E08EE00E94A30177CF14BC15BC84B5E7
:10050000826084BD85B5816085BDEFEFF1E0E49147
:10051000F0E0EE0FFF1FE951FE4F85919491E1EE5F
:10052000F1E0E491E0933706C0E056CF10928000EE
:100530001092810080918100886080938100809179
:100540008100816080938100EFEFF1E0E491F0E0C1
:10055000EE0FFF1FE951FE4F85919491E1EEF1E01E
:10056000E491E093360638CF1092B0001092B100BB
:100570008091B00082608093B0008091B100816072
:100580008093B100EFEFF1E0E491F0E0EE0FFF1F98
:10059000E951FE4F859194919093350680933406EE
:1005A000E1EEF1E0E491E093330616CF84E061CF11
:1005B00060E072E18AE790E00E942010BA01A90190
:1005C0004150510961097109C130F1F580918100F3
:1005D000887F8160809381005093890040938800D8
:1005E0008FEF9FEFDC0180933C0690933D06A09334
:1005F0003E06B0933F0680916F00826080936F004B
:10060000E0CE4093B3008FEF9FEFDC01809338067C
:1006100090933906A0933A06B0933B068091700000
:10062000826080937000CDCE93E04F3F510561050D
:10063000710511F00CF024CF34CF84E09091B1001B
:10064000987F892B8093B100C13031F2C230C9F25A
:10065000C111B7CE2ACF86E0F1CF3FB7F894809191
:100660000C0690910D06A0910E06B0910F0626B5CE
:10067000A89B05C02F3F19F00196A11DB11D3FBFDA
:10068000BA2FA92F982F8827BC01CD01620F711DA9
:10069000811D911D42E0660F771F881F991F4A95A3
:1006A000D1F708958F929F92AF92BF92CF92DF922F
:1006B000EF92FF924B015C010E942D036B017C01C4
:1006C0000E942D036C197D098E099F09683E7340B5
:1006D00081059105A8F321E0821A9108A108B108CB
:1006E00088EEC80E83E0D81EE11CF11C8114910431
:1006F000A104B10429F7FF90EF90DF90CF90BF9055
:10070000AF909F908F9008950895089508959091C7
:10071000030189130BC0E5E0F2E0E4919FEF9093B1
:100720000301E13049F028F0E23061F060E00C9420
:10073000750110926E00FACF90916F009D7F90939B
:100740006F00F4CF909170009D7F9093700091E0C6
:100750009093B0009091B100987F94609093B10015
:100760001092B300E3CFAF92BF92CF92DF92EF929D
:10077000FF920F931F93CF93DF936C017B018B014B
:10078000040F151FEB015E01AE18BF08C017D1079B
:1007900059F06991D601ED91FC910190F081E02D25
:1007A000C6010995892B79F7C501DF91CF911F917A
:1007B0000F91FF90EF90DF90CF90BF90AF90089592
:1007C000FC01538D448D252F30E0842F90E0821B57
:1007D000930B541710F0CF96089501970895FC01DC
:1007E000918D828D981761F0A28DAE0FBF2FB11D34
:1007F0005D968C91928D9F5F9F73928F90E008958C
:100800008FEF9FEF0895FC01918D828D981731F045
:10081000828DE80FF11D858D90E008958FEF9FEF99
:100820000895FC01918D228D892F90E0805C9F4F6F
:10083000821B91098F739927089584E496E00E94A2
:10084000110421E0892B09F420E0822F089580E033
:1008500090E0892B29F00E941D0481110C94000066
:100860000895FC01A48DA80FB92FB11DA35ABF4F45
:100870002C91848D90E001968F739927848FA6899F
:10088000B7892C93A089B1898C91837080648C93F3
:10089000938D848D981306C00288F389E02D8081A2
:1008A0008F7D80830895EF92FF920F931F93CF93D4
:1008B000DF93EC0181E0888F9B8D8C8D98131AC09B
:1008C000E889F989808185FF15C09FB7F894EE8982
:1008D000FF896083E889F9898081837080648083DF
:1008E0009FBF81E090E0DF91CF911F910F91FF902A
:1008F000EF900895F62E0B8D10E00F5F1F4F0F73D2
:100900001127E02E8C8D8E110CC00FB607FCFACF8C
:10091000E889F989808185FFF5CFCE010E943104F5
:10092000F1CFEB8DEC0FFD2FF11DE35AFF4FF0825D
:100930009FB7F8940B8FEA89FB8980818062CFCFC3
:10094000CF93DF93EC01888D8823B9F0AA89BB8906
:10095000E889F9898C9185FD03C0808186FD0DC0F1
:100960000FB607FCF7CF8C9185FFF2CF808185FF12
:10097000EDCFCE010E943104E9CFDF91CF910895F0
:100980001092F2051092F1051092F0051092EF0509
:1009900010922806109227061092EE051092160665
:1009A000109211061092ED0508959091F2059F5F47
:1009B000963008F090E02091F105291751F0E92FC9
:1009C000F0E0E951FA4F80839093F20581E090E0E6
:1009D00008958CEF9FEF0895CF93DF938093E60502
:1009E0008093E5051092EE051092E4058091ED05E7
:1009F000806C8093ED058091F00587FD0DC080919E
:100A0000F00580FF09C08091EF058093E305809198
:100A1000ED0580618093ED058091F305823009F446
:100A200041C0833061F4E99881E090E0880F991F1C
:100A3000FC01EC5FFE4F86E893E091838083D091C8
:100A4000F40561E08D2F0E94750161E08D2F0E94F9
:100A5000A301C091F30561E08C2F0E94750161E054
:100A60008C2F0E94A30183E290E00197F1F760E0F0
:100A70008C2F0E9475018BEE90E00197F1F760E0FA
:100A80008D2F0E94750162E08C2F0E94A30180E0EF
:100A9000C23021F08FEFC33009F481E0DF91CF91B4
:100AA0000C942E01E89890E080E0C0CF9091F10581
:100AB0008091F205891799F18091F005816080930A
:100AC000F0058091F00587FD2DC08091ED0587FD33
:100AD00029C01092EF052FEF3FEF9F5F963008F08F
:100AE00090E0E92FF0E0E951FA4F2F3F320771F41F
:100AF000208130E09093F1058091F2058913EDCFCC
:100B0000822F0E94EC0481E090E0089580818B3B6D
:100B1000B9F78091EF058F5F8093EF05EBCF8EEFF4
:100B20009FEF08958AE79FEF08958DEE0E94D50408
:100B30008BEB0E94D504809111060E94D5048BEBAB
:100B40000E94D504892B11F00C94560508950F933B
:100B50001F93CF93DF931091320680913106181BBB
:100B600017FD1C5F01E0133064F580912806A09109
:100B700027068A1B87FD885F882319F18091280644
:100B8000A817F9F0AF5FA83008F0A0E0A0932706FF
:100B9000B0E0AA0FBB1FA95EB94FCD91DC911197B0
:100BA0008D919C9192FDC0C02C2FCA3A20F08C2FC1
:100BB000815F823010F494FF0AC0DD27209709F08E
:100BC000B5C0812FDF91CF911F910F910895809132
:100BD000160695FF18C0806880931606D0E0C0E026
:100BE00093FF1EC0FE01EF57FE4FE4912E130DC080
:100BF000CE57DE4FFE01C491D0E02097D1F4809112
:100C00001606D82BDBCF8F77E7CF2296C235D105DA
:100C100049F7D0E0C0E0F3CF2296CE3DD105C9F32D
:100C2000FE01ED55FF4FE4912E13F6CFCC55DF4F6B
:100C3000E1CF80911606FE01C430D10508F049C00D
:100C4000EE5EF94F87FF04C01082CBEBD0E01BC0F3
:100C500090819130D1F30083C230D105A1F1C3302E
:100C6000D10541F182E090911106292F282369F1E5
:100C70002091160680958923809311062068209381
:100C800016060E9495058091160687FF04C0909174
:100C9000100693FD65C09E012052310921343105B3
:100CA00008F440C0CB38D10509F43CC08160809382
:100CB0001606A5CF84FF05C08F7E8093160684E0BC
:100CC000D2CF8061FACF81E0CECF892B80931106FD
:100CD000D8CF3697E830F10598F4E556FF4FE49108
:100CE00087FF05C0E095E823E0931606CCCF9E2F42
:100CF000982321F09091100697FDA7CFE82BF4CF11
:100D0000FE01B097EB30F10508F0BDCF90911106D0
:100D100091FF02C086FFB7CFE057FF4FE491CE2F7F
:100D2000D0E0B1CF8E7FC3CFC6E0D0E0CE0199270F
:100D30008B3B910509F417CF892B09F414CF8091CF
:100D400032068F5F84300CF080E0E82FEE0FFF0B4F
:100D5000E75DF94FD183C083809332061F5F03CFD5
:100D6000CBEBD0E0E3CFCF92DF92EF92FF920F93E5
:100D70001F93CF93DF938091ED0586FF74C0809120
:100D8000EE058F5F8093EE058091EE058A3048F482
:100D9000823098F560E0813009F448C01092EE0589
:100DA000C4C08B3009F44EC0E8F18C30B9F78091A3
:100DB000E5058E3E69F08091E5058E3F49F0809112
:100DC000E5058093DE058091ED0582608093ED0559
:100DD0008091ED058F7B8093ED058091F00587FF75
:100DE0003EC08091F0058F778093F0058091ED05EE
:100DF00084FDD4CF0E945605D1CFC091E605C170C5
:100E00006C2F8091F4050E9475018091E405C80F54
:100E1000C093E4058091E60590E0959587958093D1
:100E2000E60583C06091E405609561708091F405EA
:100E3000DF91CF911F910F91FF90EF90DF90CF90B6
:100E40000C94750162E08091F405DF91CF911F91C0
:100E50000F91FF90EF90DF90CF900C94A3018091C1
:100E6000F0058E7FC1CF2091F40530E0F901E45800
:100E7000FF4F8491F901ED52FE4FD491F901EF50EB
:100E8000FE4FC491CC2379F081110E944C01EC2FCC
:100E9000F0E0EE0FFF1FE859FF4FA591B491EC91E0
:100EA000ED2381E009F480E09FB7F89440910806B3
:100EB0005091090660910A0670910B069FBF009140
:100EC000DF051091E0052091E1053091E2056A010E
:100ED0007B01C01AD10AE20AF30A970186010B3F8F
:100EE00011052105310520F01092EE051092E6055E
:100EF0004093DF055093E0056093E1057093E205B0
:100F00009091EE059F5F9093EE059091EE059A30DB
:100F1000A8F4923028F5913009F040CF1092E40502
:100F20008091ED0580688093ED05DF91CF911F9151
:100F30000F91FF90EF90DF90CF9008959A3019F1C4
:100F40009B3009F02BCF8091E4058D3F48F18EEF67
:100F50000E94EC048091F00580688093F0051ECF1C
:100F60009091E405980F9093E4052091E60530E018
:100F7000359527952093E60590E0811190E88091C2
:100F8000E605892B4CCF9091E40591709093E40590
:100F90009091E4058913C9CF8DEF8093E405C5CF07
:100FA0008091E6058E3F29F09091ED059D7F90930D
:100FB000ED059091ED0594FF02C0803F70F0909197
:100FC000ED0592FD91C08E3E09F477C0E8F48A3AAF
:100FD00009F47FC020F4882359F186E02CC0803EBC
:100FE00009F47BC0813EC9F78091ED0582FD1AC0EE
:100FF00087E08093E3058091ED0584608093ED05A3
:101000008091ED058F7D0CC08C3F09F44EC060F4DB
:10101000803F19F781E08093E3058091ED058062C0
:101020008093ED0580E007C08E3FA9F18F3FA9F6C0
:101030000E94C0048CE081FF05C09091E3059150AF
:101040009093E3059091E305191614F482FF1EC0F6
:10105000909128069F5F983008F090E02091270635
:101060002917A1F02091E605E92FF0E030E0EE0F1E
:10107000FF1FE95EF94F318320834091ED05208108
:101080003181342B3183208390932806807171F154
:101090008091E5055DCF8091ED0581FFC3CF809103
:1010A000DE058093E50580E1C6CF1092E30510923E
:1010B000ED051092F0058EE0BECF9091ED0591FF09
:1010C0000AC09091DE059E3E31F08093E50584E1F3
:1010D000B2CF1092E30584E0AECF81E08093E305C8
:1010E0008091ED0588609CCF82E0A5CF8091E305DB
:1010F00018160CF453CE8091ED05837C8093ED059A
:101100001092E3058091ED058F778093ED0572CE07
:1011100020919405260F3327331F21323105ECF43B
:101120002091B805FC0190E080E0243069F082E075
:101130000895A09194052191AC014C585A4FA40FE9
:10114000B52FB11D2C930196861798F380919405C5
:10115000680F6093940580E0089581E008951092EF
:10116000B80581E08093BA051092B90561E082E18B
:101170000E94750161E083E10E947501E9EBF0E0F6
:1011800080818E7F808380818D7F808388E48093BF
:10119000B80085E48093BC000895CF93DF9391E07D
:1011A000909373058823B9F0C091B800D091BA002C
:1011B0008091BC008A7B8093BC0060E082E10E9449
:1011C000750160E083E10E9475010E94AF08D09331
:1011D000BA00C093B800DF91CF9108950895E091CF
:1011E000FC058091FB05E81730F4F0E0E25BFA4F74
:1011F000808190E008958FEF9FEF08959091FC0516
:101200008091FB052FEF3FEF981748F4E92FF0E0AE
:10121000E25BFA4F208130E09F5F9093FC05C901AB
:1012200008958091FB059091FC05891B990B089509
:10123000CF92DF92EF92FF920F931F93CF93DF93A2
:101240007C01CB018A0120914D05222389F0EB011D
:101250006B01C40ED51ECC15DD0569F06991D7016F
:10126000ED91FC910190F081E02DC7010995F3CF3C
:10127000642F0E948808C801DF91CF911F910F91C0
:10128000FF90EF90DF90CF900895CF93DF931F9260
:10129000CDB7DEB7698320914D052223F9F0209167
:1012A000F905203258F021E030E0FC01338322833D
:1012B00090E080E00F90DF91CF9108958091FA0542
:1012C000E82FF0E0E35DFA4F998190838F5F809380
:1012D000FA058093F90581E090E0ECCF61E0CE0162
:1012E00001960E948808F7CF90E080E00895CF92A1
:1012F000DF92EF92FF920F931F93CF938093FD05A0
:10130000609100016295660F607E8F73680F809117
:101310000306882309F488C080E4680F8FEC6827EF
:1013200064FB882780F98093020681E080934D0555
:1013300080E280932C051092FA051092F90581EE57
:1013400096E00E944509C091F905C13208F093C0AA
:101350000E942D036B017C018091B805811166C04C
:1013600082E08093B80581E08093BA058FEF809387
:10137000B7051092DC05C093DB05ADE2B5E0EBEB01
:10138000F5E080E0C81385C01092DD058091DD0591
:1013900080648093DD058091B905813009F07DC0BE
:1013A0001092B9050E942D036B017C018091DD052F
:1013B0008093BB0080916F0590917005A09171059D
:1013C000B0917205892B8A2B8B2B99F00E942D03EB
:1013D00000916F0510917005209171053091720593
:1013E0006C197D098E099F09061717072807390709
:1013F000F0F18091BC0083FDD9CF85EC8093BC00D7
:101400000E942D036B017C018091B805823009F4A4
:1014100046C08091B7058F3F71F18091B70580324A
:1014200051F18091B70527C080E877CF80916F0593
:1014300090917005A0917105B0917205892B8A2B4E
:101440008B2B09F489CF0E942D0300916F05109119
:10145000700520917105309172056C197D098E0916
:101460009F09061717072807390708F075CF8091DD
:101470006E050E94CD081092FA051092F90510929F
:101480004D05CF911F910F91FF90EF90DF90CF907E
:1014900008959D9191938F5F75CF85EEAFCF809129
:1014A0006F0590917005A0917105B0917205892B1F
:1014B0008A2B8B2B09F4A8CF0E942D0300916F0576
:1014C0001091700520917105309172056C197D099C
:1014D0008E099F09061717072807390708F094CFC8
:1014E000C6CF85ED8093BC0080916F05909170050B
:1014F000A0917105B09172050796A11DB11D23E061
:10150000B695A795979587952A95D1F72091BC0018
:1015100024FD03C01092B805089540916F055091C5
:1015200070056091710570917205452B462B472B14
:1015300069F30097A105B10541F02AE22A95F1F778
:1015400000C00197A109B109E1CF80916E050C940B
:10155000CD081F920F920FB60F9211242F933F9335
:101560008F939F93AF93BF93809108069091090644
:10157000A0910A06B0910B063091070623E0230FD5
:101580002D3758F50196A11DB11D209307068093B4
:10159000080690930906A0930A06B0930B06809163
:1015A0000C0690910D06A0910E06B0910F060196C3
:1015B000A11DB11D80930C0690930D06A0930E06FD
:1015C000B0930F06BF91AF919F918F913F912F9153
:1015D0000F900FBE0F901F90189526E8230F0296CC
:1015E000A11DB11DD2CF1F920F920FB60F921124E1
:1015F0002F933F934F935F936F937F938F939F931B
:10160000AF93BF93EF93FF93E0910601F091070131
:101610000995FF91EF91BF91AF919F918F917F912C
:101620006F915F914F913F912F910F900FBE0F904F
:101630001F9018951F920F920FB60F9211242F939F
:101640003F934F935F936F937F938F939F93AF934A
:10165000BF93EF93FF93E0910401F0910501099589
:10166000FF91EF91BF91AF919F918F917F916F917A
:101670005F914F913F912F910F900FBE0F901F9050
:1016800018951F920F920FB60F9211242F933F932C
:101690004F935F936F937F938F939F93AF93BF937A
:1016A000EF93FF938091380690913906A0913A0606
:1016B000B0913B06892B8A2B8B2BD1F1909133066D
:1016C000E0913406F09135068081892780838091EE
:1016D000380690913906A0913A06B0913B0618164B
:1016E00019061A061B069CF480913806909139065B
:1016F000A0913A06B0913B060197A109B1098093E8
:10170000380690933906A0933A06B0933B06FF91B2
:10171000EF91BF91AF919F918F917F916F915F9169
:101720004F913F912F910F900FBE0F901F901895E2
:10173000809103010E948703EACF1F920F920FB698
:101740000F9211242F933F934F935F936F937F9347
:101750008F939F93AF93BF93EF93FF9384E496E0AF
:101760000E943104FF91EF91BF91AF919F918F91B2
:101770007F916F915F914F913F912F910F900FBE8D
:101780000F901F9018951F920F920FB60F92112471
:101790002F938F939F93EF93FF93E0915406F091D3
:1017A00055068081E0915A06F0915B0682FD1BC0D0
:1017B000908180915D068F5F8F7320915E06821706
:1017C00041F0E0915D06F0E0EC5BF94F958F80937E
:1017D0005D06FF91EF919F918F912F910F900FBE1A
:1017E0000F901F9018958081F4CF1F920F920FB623
:1017F0000F9211242F933F934F935F936F937F9397
:101800008F939F93AF93BF93EF93FF938091B90012
:10181000887F803609F44AC0F0F5883209F4A7C001
:1018200018F5803109F49BC0B8F4882309F4F9C095
:10183000883009F494C0FF91EF91BF91AF919F91CF
:101840008F917F916F915F914F913F912F910F9069
:101850000FBE0F901F901895883109F488C0803210
:1018600051F78093B70514C0803409F49DC040F44B
:101870008033B9F38833F9F68093B70585ECB0C0AF
:10188000803509F485C0883509F496C0883499F606
:101890000E94710AD0CF883909F48CC038F5883796
:1018A00029F050F4883611F0803729F683E08093D0
:1018B000B8051092B60557C0883809F47BC0803946
:1018C00019F0803809F0B7CF8091B605803208F062
:1018D00071C0E091B60581E08E0F8093B6058091CE
:1018E000BB00F0E0EA56FA4F80833DC0803B39F000
:1018F000E0F4803A09F479C0883A09F09CCF84E09A
:101900008093B8051092950510929405E091F70523
:10191000F091F80509958091940581110FC081E03F
:10192000809394051092740509C0803C09F4A6CFF9
:10193000883C09F4A3CF883B09F07DCFE091950561
:1019400081E08E0F80939505F0E0EC58FA4F80818E
:101950008093BB00909195058091940529C080915A
:10196000DD058093BB0085EC8093BC0064CF909133
:10197000DC058091DB05981758F5E091DC0581E0E6
:101980008E0F8093DC05F0E0E554FA4F8081E9CFBB
:10199000E091DC0581E08E0F8093DC058091BB0037
:1019A000F0E0E554FA4F80839091DC058091DB05EF
:1019B0009817C8F285E8D8CFE091DC0581E08E0F5A
:1019C0008093DC058091BB00F0E0E554FA4F808302
:1019D0008091BA0581115CCF81E08093B90584EADA
:1019E0008093BC001092B80526CF85EC8093BC0094
:1019F0001092B8058091B605803230F4E091B605BA
:101A0000F0E0EA56FA4F10826091B60570E0E0917E
:101A1000F505F091F60586E995E009951092B60571
:101A20000ACF1092B70534CFE4E4F6E013821282B5
:101A300088EE93E0A0E0B0E084839583A683B7832B
:101A40002CE035E03183208325EC30E03587248796
:101A500024EC30E03787268720EC30E0318B208B78
:101A600021EC30E0338B228B22EC30E0358B248B61
:101A700026EC30E0378B268B118E128E138E148E4F
:101A8000E1EEF6E01382128284839583A683B78306
:101A90008EE195E0918380830895789484B5826087
:101AA00084BD84B5816084BD85B5826085BD85B502
:101AB000816085BD80916E00816080936E00109280
:101AC00081008091810082608093810080918100FB
:101AD000816080938100809180008160809380008C
:101AE0008091B10084608093B1008091B0008160EA
:101AF0008093B00080917A00846080937A00809116
:101B00007A00826080937A0080917A00816080936D
:101B10007A0080917A00806880937A001092C100E8
:101B20000E94C0048CE08093F40583E08093F30569
:101B300062E00E94A30162E08CE00E94A30181E0C8
:101B40000E942E018091100687778093100686E010
:101B500080931106809116068061809316060E947C
:101B600095051092FC051092FB051092FA05109253
:101B7000F9050E94AF0884E893E09093F8058093FC
:101B8000F70585E893E09093F6058093F505E091DD
:101B90005406F091550682E08083E0915006F09162
:101BA00051061082E0915206F09153068FEC80832B
:101BB00010925C06E0915806F091590686E2808307
:101BC000E0915606F0915706808180618083E09114
:101BD0005606F0915706808188608083E091560612
:101BE000F0915706808180688083E0915606F091DD
:101BF000570680818F7D80831092050681E0809357
:101C0000040680930306809102010E9477096FEF1A
:101C100084E496E00E94530484E496E00E94A004C9
:101C2000E0E0AE2EE0E0BE2EF2E0FF2EEE24E394E4
:101C30000E94A705882309F43FC00E94A705D0E0B1
:101C4000C0E0882379F0E0913106EF5FE43008F0DE
:101C5000E0E0E0933106F0E0EE0FFF1FE75DF94FA3
:101C6000C081D18180910206811126C01C2FC8300D
:101C700009F03EC08D2F8095881F8827881F90E02F
:101C8000909301068093000688EF810F8230A0F0C8
:101C90001330D9F581E090E02091000130910101ED
:101CA000232B11F090E080E09093010180930001DC
:101CB0008091FD050E94770984E496E00E9411045A
:101CC000181619060CF090C084E496E00E94EF0309
:101CD000EC01D82E80910606F0E4CF137FC082304D
:101CE00009F0A6C18EE00E948703109206067CC010
:101CF000C93051F68D2F8095881F8827881F90E066
:101D00009093FF058093FE05BFCF1A3FA9F2D7FD40
:101D1000D3CF80910506882369F082E093E00E948A
:101D2000D40162E370E080E090E00E9452038EE014
:101D30000E94870380910406882369F088EE94E06E
:101D40000E94D40161E070E080E090E00E945203C4
:101D50008EE00E948703CE019927FC01E85FFD4FCA
:101D6000D6FD0FC02091000630910106FC01232B07
:101D700031F42091FE053091FF05232BB1F0E85F8F
:101D8000FB4F6081163009F497CF2091000130910C
:101D90000101232B69F0885F9E4FFC0180818F3FFA
:101DA000D9F46F3F09F488CF08C0E85FFC4FE9CF52
:101DB0008FEB860F8A3150F4605E84E496E00E94D7
:101DC000530484E496E00E94A00476CF8FE9860F46
:101DD0008A3138F76052F1CF682FEFCFC11110C0B0
:101DE00081112AC1E0920606A114B10409F420CFA2
:101DF0000E941D04882309F41BCF0E94000018CF05
:101E0000813091F78C2F8054803408F0E3C0F09239
:101E10000606EC2FE054E03408F059C0F0E0ED5E27
:101E2000F04F0C943F10530F670F630F6E0F710F3D
:101E3000740F770F7A0F7D0F800F830F860F890F36
:101E40008C0F8F0F920F950F980F9B0F9E0FA10F66
:101E5000A40FA70FAA0FAD0FB00FB30FB60FB90F96
:101E6000BC0FBF0FC20F670F670F630F6E0F710FAD
:101E7000740F770F7A0F7D0F800F830F860F890FF6
:101E80008C0F8F0F920F950F980F9B0F9E0FA10F26
:101E9000A40FA70FAA0FAD0FB00FB30FB60FB90F56
:101EA000BC0FBF0FE10F82E093E00E94D40168EE07
:101EB00073E080E090E00E9452038EE00E9487036E
:101EC0001092060663C085EA90E00E94D40130E4D7
:101ED000D316B1F38FE7D81259C0F2CF8EEA90E053
:101EE000F4CF89EB90E0F1CF84EC90E0EECF8FEC73
:101EF00090E0EBCF8CED90E0E8CF89EE90E0E5CF7D
:101F000087EF90E0E2CF85E091E0DFCF85E191E0DF
:101F1000DCCF86E291E0D9CF86E391E0D6CF8AE4A8
:101F200091E0D3CF8DE591E0D0CF82E791E0CDCFA6
:101F300086E891E0CACF8FE991E0C7CF88EB91E0C6
:101F4000C4CF82ED91E0C1CF8EEE91E0BECF8BE0A9
:101F500092E0BBCF8AE292E0B8CF8AE492E0B5CFBC
:101F60008EE692E0B2CF84E992E0AFCF8AEB92E0C6
:101F7000ACCF84EE92E0A9CF80E193E0A6CF8EE3D0
:101F800093E0A3CF83E092E00E94D4018091060603
:101F9000813089F4C7FF0FC010920606C3FB882763
:101FA00080F980930506C2FB882780F98093040698
:101FB000C170C093030680910606813009F014CFEA
:101FC00094CE82E093E00E94D40164E670E080E069
:101FD00090E071CF9FE39C17E8F210920606CE01C5
:101FE00023E0959587952A95E1F782709E013595B6
:101FF00027952470822B9E01220F331F2870820F99
:102000009E0164E0220F331F6A95E1F72071C5FB42
:10201000992790F9922B890FC1FF08C080588093AF
:102020000201809102010E947709B0CF805CF7CF56
:10203000813009F0D9CEEBCE813009F0D5CECDCFAD
:10204000052E97FB1EF400940E94371057FD07D011
:102050000E94451007FC03D04EF40C9437105095A5
:102060004095309521953F4F4F4F5F4F0895909584
:102070008095709561957F4F8F4F9F4F0895EE0F1C
:10208000FF1F0590F491E02D0994A1E21A2EAA1BDE
:10209000BB1BFD010DC0AA1FBB1FEE1FFF1FA21718
:1020A000B307E407F50720F0A21BB30BE40BF50B15
:1020B000661F771F881F991F1A9469F7609570959E
:1020C000809590959B01AC01BD01CF010895F894D6
:1020D000FFCF0100CFFF86038603FFFFFFFFFFFF57
:1020E000FFFFFFFFFFFFFFFFFFFFFFFFFFFFFFFF00
:1020F000FFFFFFFFFFFFFFFFFFFFFFFFFFFFFFFFF0
:10210000FFFFFFFFFFFFFFFFFFFFFFFFFFFFFFFFDF
:10211000FFFFFFFF5DFFFFFFFFFFFFFFFFFFFFFF71
:10212000FFFFFFFFFFFFFFFFFFFFFFFFFFFFFFFFBF
:10213000FFFFFFFFFF53405B5CFFFFFFFFFFFFFF61
:10214000FFFFFFFFFFFFFFFFFFFFFFFFFFFFFFFF9F
:10215000FFFFFFFFFFFFFFFFFFFFFFFFFFFFFFFF8F
:10216000FFFFFFFFFFFFFFFFFFFFFFFFFFFFFFFF7F
:10217000FFFFFFFFFFFFFFFFFFFFFFFFFFFFFFFF6F
:10218000FFFFFFFFFFFFFFFFFFFFFFFFFFFFFFFF5F
:10219000FFFFFFFFFFFFFFFFFFFFFFFFFFFFFFFF4F
:1021A000FFFFFFFFFFFFFFFFFFFFFFFFFFFFFFFF3F
:1021B000FFFFFFFFFFFFFFFFFFFFFFFFFFFFFFFF2F
:1021C000FFFFFFFFFFFFFFFFFFFFFFFFFFFFFFFF1F
:1021D000FFFFFFFFFFFFFFFFFFFFFFFFFFFFFAFF14
:1021E000FFFFFFFFFFFFFFFF0AFFFFD0D2D1D3C4E5
:1021F000C3C1C2FF7F1B08090D20F0F1F2F3F4F513
:10220000F6F7F8F9EECDECEDFFFF3D212223242572
:1022100026272829AD3B5F3A3FFF806162636465F2
:10222000666768696A6B6C6D6E6F707172737475D6
:10223000767778797ABEB0BBBC2AFFD4D5D6D7D80A
:10224000D9DADBDCDDDEFFFFFFFFFFFFFFFFFFFF73
:10225000FFFFFFFFFFFFFFFFFFFFFFFFFFFFFFFF8E
:10226000FFFFFFFFFF3EFFFFFFFFFFFFFFFFFFFF3F
:10227000FFFFFFFFFFFFFFFFFFFFFFFFFFFFFFFF6E
:10228000FFFFFFFFFFFFFFFFFFFFFFFFFFFFFFFF5E
:10229000FFFFFFFFFFFFFFFFFFFFFFFFFFFFFFFF4E
:1022A000FFFFFFFFFFFFFFFFFFFFFFFFFFFFFFFF3E
:1022B000FFFFFFFFFFFFFFFFFFFFFFFFFFFFFFFF2E
:1022C000FFFFFFFFFFFFFFFFFFFFFFFFFFFFFFFF1E
:1022D000FFFFFFFFFFFFFFFFFFFFFFFFFFFFFAFF13
:1022E000FFFFFFFFFFFFFFFF0AFFFFD0D2D1D3C4E4
:1022F000C3C1C2FF7F1B08090D20F0F1F2F3F4F512
:10230000F6F7F8F9EECDECEDFFFF3031323334352E
:1023100036373839BD2C2D2E2FFF8041424344459E
:10232000464748494A4B4C4D4E4F505152535455D5
:10233000565758595ACEC0CBCC2BFFD4D5D6D7D868
:10234000D9DADBDCDDDEFFFFFFFFFFFFFFFFFFFF72
:10235000FFFFFFFFFFFFFFFFFFFFFFFFFFFFFFFF8D
:10236000FFFFFFFFFF3CFFFFFFFFFFFFFFFFFFFF40
:10237000FFFFFFFFFFFFFFFFFFFFFFFFFFFFFFFF6D
:10238000FFFFFFFFFFFFFFFFFFFFFFFFFFFFFFFF5D
:10239000FFFFFFFFFFFFFFFFFFFFFFFFFFFFFFFF4D
:1023A000FFFFFFFFFFFFFFFFFFFFFFFFFFFFFFFF3D
:1023B000FFFFFFFFFFFFFFFFFFFFFFFFFFFFFFFF2D
:1023C000FFFFFFFFFFFFFFFFFFFFFFFFFFFFFFFF1D
:1023D000FFFFFFFFFFFFFFFFFFFFFFFFFFFFFBFF11
:1023E000FFFFFFFFFFFFFFFFFFFFFFFFFFFFFFFFFD
:1023F000FFFFFFFFFFFFFFFF0D00FFFFFFFFFFFFDE
:10240000FFFFFFFFFFFFFFFFFFFFFFFFFFFFFFFFDC
:10241000FFFFFFFF1DFF1FFFFFFF800102030405F9
:10242000060708090A0B0C0D0E0F101112131415D4
:10243000161718191A1E001B1CFFFFFFFFFFFFFFD6
:10244000FFFFFFFFFFFFDFFFFFFFFFFFFFFFFFFFBC
:10245000FFFFFFFFFFFFFFFFFFFFFFFFFFFFFFFF8C
:10246000FFFFFFFFFFFFFFFFFFFFFFFFFFFFFFFF7C
:10247000FFFFFFFFFFFFFFFFFFFFFFFFFFFFFFFF6C
:10248000FFFFFFFFFFFFFFFFFFFFFFFFFFFFFFFF5C
:10249000FFFFFFFFFFFFFFFFFFFFFFFFFFFFFFFF4C
:1024A000FFFFFFFFFFFFFFFFFFFFFFFFFFFFFFFF3C
:1024B000FFFFFFFFFFFFFFFFFFFFFFFFFFFFFFFF2C
:1024C000FFFFFFFFFFFFFFFFFFFFFFFFFFFFFFFF1C
:1024D000FFFFFFFFFFFFFFFFFFFF000000005304AF
:1024E000B303E003A0041104EF03030400000000A1
:0E24F000450918097409EE081109FE08EF08E5
:107800000C94343C0C94513C0C94513C0C94513CE1
:107810000C94513C0C94513C0C94513C0C94513CB4
:107820000C94513C0C94513C0C94513C0C94513CA4
:107830000C94513C0C94513C0C94513C0C94513C94
:107840000C94513C0C94513C0C94513C0C94513C84
:107850000C94513C0C94513C0C94513C0C94513C74
:107860000C94513C0C94513C11241FBECFEFD8E036
:10787000DEBFCDBF11E0A0E0B1E0ECE9FFE702C060
:1078800005900D92A230B107D9F712E0A2E0B1E065
:1078900001C01D92AD30B107E1F70E942D3D0C945F
:1078A000CC3F0C94003C982F959595959595959582
:1078B000905D8F708A307CF0282F295A8091C0000B
:1078C00085FFFCCF9093C6008091C00085FFFCCF60
:1078D0002093C6000895282F205DF0CF982F809127
:1078E000C00085FFFCCF9093C6000895EF92FF92F1
:1078F0000F931F93EE24FF2487018091C00087FD22
:1079000017C00894E11CF11C011D111D81E4E8164B
:1079100082E4F8068FE0080780E0180770F3E09132
:107920000401F091050109958091C00087FFE9CF1E
:107930008091C6001F910F91FF90EF9008950E94D3
:10794000763C982F8091C00085FFFCCF9093C600B5
:1079500091362CF490330CF09053892F089597555D
:10796000892F08951F930E949F3C182F0E949F3CCF
:107970001295107F810F1F9108951F93182F882350
:1079800021F00E94763C1150E1F71F9108951F935A
:10799000182F0E94763C803249F0809103018F5F5E
:1079A000809303018530C1F01F9108958091C0003C
:1079B00085FFFCCF84E18093C6008091C00085FFE5
:1079C000FCCF1093C6008091C00085FFFCCF80E102
:1079D0008093C6001F910895E0910401F091050184
:1079E00009951F9108950E94763C803241F0809164
:1079F00003018F5F80930301853081F008958091AA
:107A0000C00085FFFCCF84E18093C6008091C00058
:107A100085FFFCCF80E18093C6000895E0910401CA
:107A2000F09105010995089540E951E08823A1F0FE
:107A30002D9A28EE33E0FA013197F1F721503040CA
:107A4000D1F72D9828EE33E0FA013197F1F7215064
:107A50003040D1F7815061F708953F924F925F9285
:107A60006F927F928F929F92AF92BF92CF92DF924E
:107A7000EF92FF920F931F93CF93DF93000080E16B
:107A80008093C4001092C50088E18093C10086E015
:107A90008093C2005098589A259A81E00E94143D24
:107AA00024E1F22E9EE1E92E85E9D82E0FE0C02ECA
:107AB00010E1B12EAA24A394B1E49B2EA6E58A2E50
:107AC000F2E57F2EE0E26E2E79E4572E63E5462E36
:107AD00050E5352E0E94763C8033B1F18133B9F107
:107AE000803409F46FC0813409F476C0823409F41B
:107AF00085C0853409F488C0803531F1823521F1A3
:107B0000813511F1853509F485C0863509F48DC0BC
:107B1000843609F496C0843709F403C1853709F423
:107B200072C1863709F466C0809103018F5F80932C
:107B30000301853079F6E0910401F0910501099582
:107B40000E94763C803351F60E94F33CC3CF0E94E2
:107B5000763C803249F78091C00085FFFCCFF092DF
:107B6000C6008091C00085FFFCCF9092C600809136
:107B7000C00085FFFCCF8092C6008091C00085FFC9
:107B8000FCCF7092C6008091C00085FFFCCF609250
:107B9000C6008091C00085FFFCCF5092C600809146
:107BA000C00085FFFCCF4092C6008091C00085FFD9
:107BB000FCCF3092C6008091C00085FFFCCFB09210
:107BC000C60088CF0E94763C863808F4BDCF0E945C
:107BD000763C0E94F33C7ECF0E94763C803809F4CC
:107BE0009CC0813809F40BC1823809F43CC1883942
:107BF00009F48FC080E00E94C73C6CCF84E10E94F2
:107C0000BD3C0E94F33C66CF85E00E94BD3C0E94D3
:107C1000F33C60CF0E94763C809306010E94763C44
:107C2000809307010E94F33C55CF0E94763C80333D
:107C300009F41DC183E00E94BD3C80E00E94C73C66
:107C400049CF0E94763C809309020E94763C809343
:107C5000080280910C028E7F80930C020E94763C79
:107C6000853409F415C18091080290910902892B8D
:107C700089F000E010E00E94763CF801E85FFE4FDA
:107C800080830F5F1F4F80910802909109020817AF
:107C9000190788F30E94763C803209F045CF809125
:107CA0000C0280FF01C16091060170910701660F0F
:107CB000771F7093070160930601A0910802B091AD
:107CC00009021097C9F0E8E0F1E09B01AD014E0F09
:107CD0005F1FF999FECF32BD21BD819180BDFA9A17
:107CE000F99A2F5F3F4FE417F50799F76A0F7B1F4B
:107CF00070930701609306018091C00085FFFCCF5F
:107D0000F092C6008091C00085FFFCCFB092C60003
:107D1000E1CE83E00E94C73CDDCE82E00E94C73CFA
:107D2000D9CE0E94763C809309020E94763C8093D3
:107D300008028091060190910701880F991F909386
:107D40000701809306010E94763C853409F4A6C0A1
:107D500080910C028E7F80930C020E94763C8032D0
:107D600009F0B8CE8091C00085FFFCCFF092C6002C
:107D7000609108027091090261157105B9F140E046
:107D800050E080910C02A82FA170B82FB27011C0E2
:107D9000BB2309F45CC0E0910601F0910701319624
:107DA000F0930701E09306014F5F5F4F46175707B7
:107DB000E8F4AA2369F3F999FECF209106013091E6
:107DC000070132BD21BDF89A90B58091C00085FFB2
:107DD000FCCF9093C6002F5F3F4F30930701209355
:107DE00006014F5F5F4F4617570718F38091C00099
:107DF00085FDE5CE8091C00085FFF8CFE0CE81E023
:107E00000E94C73C67CE0E94763C803209F08CCE3F
:107E10008091C00085FFFCCFF092C6008091C00029
:107E200085FFFCCFE092C6008091C00085FFFCCFAB
:107E3000D092C6008091C00085FFFCCFC092C600E2
:107E40008091C00085FFFCCFB092C60043CEE09188
:107E50000601F091070194918091C00085FFFCCF4D
:107E60009093C6009CCF80E10E94C73C33CE0E9415
:107E7000763C0E94763C182F0E94763C112309F430
:107E800083C0113009F484C08FE00E94C73C22CE29
:107E900080910C02816080930C02E5CE80910C02EF
:107EA000816080930C0259CF809107018823880F4D
:107EB000880B8A2180930B02809106019091070123
:107EC000880F991F90930701809306018091080203
:107ED00080FF09C080910802909109020196909359
:107EE000090280930802F894F999FECF1127E091D6
:107EF0000601F0910701C8E0D1E08091080290915D
:107F00000902103091F40091570001700130D9F34B
:107F100003E000935700E89500915700017001308D
:107F2000D9F301E100935700E89509901990009169
:107F3000570001700130D9F301E000935700E89534
:107F40001395103498F011270091570001700130FB
:107F5000D9F305E000935700E895009157000170B0
:107F60000130D9F301E100935700E895329602976A
:107F700009F0C7CF103011F00296E5CF112480919F
:107F8000C00085FFB9CEBCCE8EE10E94C73CA2CD19
:0E7F900085E90E94C73C9ECDF894FFCF80008B
:00000001FF
